{
  "blockhash": "0022a4b2f78ba74bdcfacabec3f1c068031c6a26d689e74fbaf7d67c680f7d25", 
  "blocktime": 1690501455, 
  "confirmations": 59, 
  "hex": "01000000010000000000000000000000000000000000000000000000000000000000000000ffffffff0a510101062f503253482fffffffff0200000000000000001976a9147c55279f0d6600604acea37061f43868f3da8a4488ac0000000000000000716a4c6e53504b6246304402201c0aa2b746775ebe0155f6f455f3e91469b978388e1651b460d4ad12a7f8ba620220317f7209f80de495d34814d157f35f20531871a44e42d8442930e081d090e6e3022102bde0adcba1511ceb91d446bb33ab33bf5ca518465dda171f614a1cb51655794400000000", 
  "locktime": 0, 
  "time": 1690501455, 
  "txid": "b18181e526cafe249d11c5117dd3a11e69e31bf23e901daf88d310c85fc3ad9f", 
  "version": 1, 
  "vin": [
    {
      "coinbase": "510101062f503253482f", 
      "sequence": 4294967295
    }
  ], 
  "vout": [
    {
      "n": 0, 
      "scriptPubKey": {
        "addresses": [
          "1Hoe9if5TyWuYuHPaSCKBF4LEKS5jnGpQ71f5G"
        ], 
        "asm": "OP_DUP OP_HASH160 7c55279f0d6600604acea37061f43868f3da8a44 OP_EQUALVERIFY OP_CHECKSIG", 
        "hex": "76a9147c55279f0d6600604acea37061f43868f3da8a4488ac", 
        "reqSigs": 1, 
        "type": "pubkeyhash"
      }, 
      "value": 0
    }, 
    {
      "data": [
        "53504b6246304402201c0aa2b746775ebe0155f6f455f3e91469b978388e1651b460d4ad12a7f8ba620220317f7209f80de495d34814d157f35f20531871a44e42d8442930e081d090e6e3022102bde0adcba1511ceb91d446bb33ab33bf5ca518465dda171f614a1cb516557944"
      ], 
      "n": 1, 
      "scriptPubKey": {
        "asm": "OP_RETURN 53504b6246304402201c0aa2b746775ebe0155f6f455f3e91469b978388e1651b460d4ad12a7f8ba620220317f7209f80de495d34814d157f35f20531871a44e42d8442930e081d090e6e3022102bde0adcba1511ceb91d446bb33ab33bf5ca518465dda171f614a1cb516557944", 
        "hex": "6a4c6e53504b6246304402201c0aa2b746775ebe0155f6f455f3e91469b978388e1651b460d4ad12a7f8ba620220317f7209f80de495d34814d157f35f20531871a44e42d8442930e081d090e6e3022102bde0adcba1511ceb91d446bb33ab33bf5ca518465dda171f614a1cb516557944", 
        "type": "nulldata"
      }, 
      "value": 0
    }
  ]
}
